:1000000003308A00AA2B0000FF00030E8301A10029
:100010000A08A0008A010408A2007708A300780853
:10002000A4007908A5007A08A600831383128C30F7
:100030008400801E1D288C1A2E2822088400230884
:10004000F7002408F8002508F9002608FA0020081F
:100050008A00210E8300FF0E7F0E09008A110A120A
:10006000722980308318DD06E201E3015908E100BE
:100070005D08E106580803192129E000F7005C0833
:1000800003192A29E0020319C628031C84285D08E5
:10009000E600E6175E08E5005F08E400E3010310F0
:1000A000E60CE50CE40CE30CE00B4E28E11F5B28AA
:1000B00062143E296210601062165B308400831364
:1000C00053296212E11B6E28601C7928E60CE50CAE
:1000D000E40CE30CF70A031939297928E61B7C287C
:1000E0000310E30DE40DE50DE60DF70303193929BF
:1000F0006E286217E62862135908E100E11F822882
:10010000E6173229E61332295C08E000F7005808A8
:10011000E0025908E600E6175A08E5005B08E4002B
:10012000E3010310E60CE50CE40CE30CE00B902873
:10013000E11F9D28E2143E29E2106010E2165F30B4
:10014000840083135329E212E11BB028601CBB28F2
:10015000E60CE50CE40CE30CF70A03193929BB287B
:10016000E61BBE280310E30DE40DE50DE60DF703D5
:1001700003193929B028E217E628E2135D08E100E7
:10018000E11FC428E6173229E61332295D08E6008C
:10019000E6175E08E5005F08E400E11FD328E613D8
:1001A00062153E296211E30160105B308400831305
:1001B0005329E11BFC285908E100601CE628E60CE5
:1001C000E50CE40CE30CF70A03193929E31FF728BF
:1001D000E40A031DF728E50A031DF728E60A031DB4
:1001E000F728E60CE50CE40CF70A03193929621B21
:1001F0007B28E21BBD281B298030E606E61F042968
:100200003E295D08E10011295908E100E608031DB7
:100210001129E508031D1129E408031D1129F7011F
:100220003229E61B1B290310E30DE40DE50DE60D55
:10023000F70B11293929E11F1F29E6173229E61387
:1002400032295C08F7005D08E6005E08E5005F08FB
:10025000E40032295808F7005908E6005A08E5007A
:100260005B08E4006608F8006508F9006408FA0015
:100270007129F701F801F901FA017129E301E40993
:10028000E509E609E309E30A031D4C29E40A031D15
:100290004C29E50A0319E60A62185A28E2189C2834
:1002A0006219D22801290008E407031C5D29E50A28
:1002B000031D5D29E60A0319601484030008E5079D
:1002C000031C6529E60A0319601484030008801FD3
:1002D000803AE60703186014621A6128E21AA3281C
:1002E000D92808004A30840083138403840A8C1EB2
:1002F00077291A0880000D300002031D762980013D
:10030000D9014A30D800DE01DC010A30DD00DB0112
:10031000DA0158085904031D91290030F800F9004A
:10032000B62A5E08DE0A580784008313591883171B
:100330000008DF005F082D3C031DAA290130DC0006
:100340005E08DE0A580784008313591883170008D3
:10035000DF00B7295F082B3C031DB7295E08DE0AC2
:10036000580784008313591883170008DF005F08BB
:100370002F3C0318A72A5F08393C031CA72A5F08F3
:10038000303C031DE3295E08580784008313591885
:1003900083170008783C0319D7295E0858078400A2
:1003A0008313591883170008583C031DE3291030A4
:1003B000DD00DE0A5E08DE0A580784008313591840
:1003C00083170008DF005D080A3C031D362A5F081A
:1003D0002F3C0318352A5F08393C031C352AE101FC
:1003E0000A30E0005B08E3005A08E2006108630697
:1003F0008039E500E11F012AE009E109E00A03195B
:10040000E10AE31F082AE209E309E20A0319E30A01
:100410001030E400F701FA01E10CE00C031C162A8D
:100420006208F7070318FA0A6308FA07FA0CF70CD0
:10043000F90CF80CE40B0C2AE51F232AF809F9093A
:10044000F80A0319F90A30305F027807DA007908F0
:10045000DB000318DB0A5E08DE0A580784008313FA
:10046000591883170008DF00E729A72A5D08103C08
:10047000031DA72A5F08603C0318452A5F087A3CE1
:10048000031C452A5F08DF39462A5F08DF005F0842
:100490002F3C03184F2A5F08393C0318572A5F087E
:1004A000403C0318A72A5F08463C031CA72A5F08A4
:1004B0002F3C0318782A5F08393C031C782A5A0D10
:1004C000E0005B0DE100E00DE10DE00DE10DE00D60
:1004D000E10DF030E00530305F026007F8006108A0
:1004E000FA000318FA0A7808DA007A08DB00912A81
:1004F0005A0DE0005B0DE100E00DE10DE00DE10DB6
:10050000E00DE10DF030E00541305F020A3E60078A
:10051000F8006108FA000318FA0A7808DA007A0885
:10052000DB005E08DE0A580784008313591883171E
:100530000008DF00603C0318A42A5F087A3C031C13
:10054000A42A5F08DF39A52A5F08DF00472A5D0873
:100550000A3C031DB22A5C0BB22ADA09DB09DA0A6B
:100560000319DB0A5A08F8005B08F9007908D9007A
:100570007808D8008E30F7005908F8005808F900BC
:10058000FA01D91FC82AF809F909F90A0319F80A62
:10059000F808031DD52A7908F800F9010830F70298
:1005A000F808031DD52AF701DE2A0310F81BDC2A00
:1005B000F90DF80DF703D52AD91FF8137A08D700DB
:1005C0007908D6007808D5007708D4005708DB00F2
:1005D0005608DA005508D9005408D8000A30DF0060
:1005E000D730DE002330DD007830DC0058080319F6
:1005F000662BE0005C080319662BE0070318072B45
:100600007F30E002031C662B0319662B0B2B813015
:10061000E0070318662B6008F700F801F901FA01FA
:100620005908E400E4175A08E3005B08E2001830B8
:10063000E000E101621C342B5F08FA07031C262B43
:10064000F90A031D262BF80A0319E1175E08F907BA
:10065000031C2D2BF80A0319E1175D08DA00DA17DD
:100660005A08F8070318E117E10DF80CF90CFA0C19
:10067000E40CE30CE20C0310E00B192B0130F7073C
:100680000318662BF81B4B2BE40DFA0DF90DF80D32
:10069000F7030319662BE41F5C2BFA0A031D5C2B7E
:1006A000F90A031D5C2BF80A031D5C2BF80CF90CEE
:1006B000FA0CF70A0319662B5908E1005D08E106F8
:1006C000E11F642BF8176A2BF8136A2BF701F80166
:1006D000F901FA017A08D7007908D6007808D50020
:1006E0007708D4005708B1005608B0005508AF008D
:1006F0005408AE008314DB01DA01D9017F30D80041
:100700005708DF005608DE005508DD005408DC00FD
:1007100031207A08B5007908B4007808B30077086A
:10072000B2008C128A110A121D283F3084008313F4
:1007300000080319A92B0130F800F701F70B9E2BD5
:10074000F80B9D2B4A30F700F70BA42BA72B800B3F
:100750009B2B0800840183131F30830561308316AF
:100760008F000F0803178711193003139900A63063
:100770009800903083129800B101B001AF017E3033
:10078000AE00B501B401B3017E30B200B901B801C9
:100790002030B7007E30B600831603170908C03931
:1007A000890003131F129F12003003178800831261
:1007B0008701880189010313A801A90183168C16FA
:1007C000C03083128B04831686128312861283161E
:1007D0008612831286168314A7018B1BA7178B130F
:1007E0003908DB003808DA003708D9003608D800A5
:1007F0003508DF003408DE003308DD003208DC0095
:100800003120A71B8B177708BA007808BB0079083E
:10081000BC007A08BD007808BE00BE0ABE030319FA
:10082000152CFF30BF0095230E2C3A08BF009523EE
:1008300083168612831286128314A7018B1BA717B7
:100840008B133908DB003808DA003708D90036087E
:10085000D8003108DF003008DE002F08DD002E0848
:10086000DC003120A71B8B177708BA007808BB0083
:100870007908BC007A08BD007808BE00BE0ABE0335
:100880000319462CFF30BF0095233F2C3A08BF00C8
:060890009523E72B630035
:04400E00E52CFF3F5F
:00000001FF
;PIC16F887
;CRC=5549  CREATED="04-mar.-20 14:50"
